{
  "_format": "hh-sol-artifact-1",
  "contractName": "Luxurify",
  "contract_address": "0x5b96AD0e3D5FdEd2A5baFd5bC84686AA276d54ab",
  "sourceName": "contracts/Luxurify.sol",
  "abi": [
    {
      "inputs": [
        {
          "internalType": "address",
          "name": "_proxyRegistryAddress",
          "type": "address"
        },
        {
          "internalType": "address",
          "name": "_VRFCoordinator",
          "type": "address"
        },
        {
          "internalType": "address",
          "name": "_ethUsdPriceFeedAddress",
          "type": "address"
        },
        {
          "internalType": "address",
          "name": "_LinkToken",
          "type": "address"
        },
        {
          "internalType": "bytes32",
          "name": "_keyhash",
          "type": "bytes32"
        }
      ],
      "stateMutability": "nonpayable",
      "type": "constructor"
    },
    {
      "anonymous": false,
      "inputs": [
        {
          "indexed": true,
          "internalType": "address",
          "name": "owner",
          "type": "address"
        },
        {
          "indexed": true,
          "internalType": "address",
          "name": "approved",
          "type": "address"
        },
        {
          "indexed": true,
          "internalType": "uint256",
          "name": "tokenId",
          "type": "uint256"
        }
      ],
      "name": "Approval",
      "type": "event"
    },
    {
      "anonymous": false,
      "inputs": [
        {
          "indexed": true,
          "internalType": "address",
          "name": "owner",
          "type": "address"
        },
        {
          "indexed": true,
          "internalType": "address",
          "name": "operator",
          "type": "address"
        },
        {
          "indexed": false,
          "internalType": "bool",
          "name": "approved",
          "type": "bool"
        }
      ],
      "name": "ApprovalForAll",
      "type": "event"
    },
    {
      "anonymous": false,
      "inputs": [
        {
          "indexed": true,
          "internalType": "address",
          "name": "previousOwner",
          "type": "address"
        },
        {
          "indexed": true,
          "internalType": "address",
          "name": "newOwner",
          "type": "address"
        }
      ],
      "name": "OwnershipTransferred",
      "type": "event"
    },
    {
      "anonymous": false,
      "inputs": [
        {
          "indexed": true,
          "internalType": "address",
          "name": "from",
          "type": "address"
        },
        {
          "indexed": true,
          "internalType": "address",
          "name": "to",
          "type": "address"
        },
        {
          "indexed": true,
          "internalType": "uint256",
          "name": "tokenId",
          "type": "uint256"
        }
      ],
      "name": "Transfer",
      "type": "event"
    },
    {
      "anonymous": false,
      "inputs": [
        {
          "indexed": true,
          "internalType": "uint256",
          "name": "_watchId",
          "type": "uint256"
        },
        {
          "indexed": true,
          "internalType": "address",
          "name": "_owner",
          "type": "address"
        },
        {
          "indexed": false,
          "internalType": "uint256",
          "name": "_randomId",
          "type": "uint256"
        },
        {
          "indexed": false,
          "internalType": "string",
          "name": "_name",
          "type": "string"
        },
        {
          "indexed": false,
          "internalType": "string",
          "name": "_referenceNumber",
          "type": "string"
        },
        {
          "indexed": false,
          "internalType": "enum Luxurify.PriceType",
          "name": "_priceType",
          "type": "uint8"
        },
        {
          "indexed": false,
          "internalType": "enum Luxurify.Currency",
          "name": "_priceUnit",
          "type": "uint8"
        },
        {
          "indexed": false,
          "internalType": "uint256",
          "name": "_priceFixed",
          "type": "uint256"
        },
        {
          "indexed": false,
          "internalType": "uint256",
          "name": "_priceToBeSold",
          "type": "uint256"
        }
      ],
      "name": "newWatchClaimed",
      "type": "event"
    },
    {
      "inputs": [],
      "name": "LinkToken",
      "outputs": [
        {
          "internalType": "address",
          "name": "",
          "type": "address"
        }
      ],
      "stateMutability": "view",
      "type": "function"
    },
    {
      "inputs": [],
      "name": "VRFCoordinator",
      "outputs": [
        {
          "internalType": "address",
          "name": "",
          "type": "address"
        }
      ],
      "stateMutability": "view",
      "type": "function"
    },
    {
      "inputs": [
        {
          "internalType": "address",
          "name": "to",
          "type": "address"
        },
        {
          "internalType": "uint256",
          "name": "tokenId",
          "type": "uint256"
        }
      ],
      "name": "approve",
      "outputs": [],
      "stateMutability": "nonpayable",
      "type": "function"
    },
    {
      "inputs": [
        {
          "internalType": "address",
          "name": "owner",
          "type": "address"
        }
      ],
      "name": "balanceOf",
      "outputs": [
        {
          "internalType": "uint256",
          "name": "",
          "type": "uint256"
        }
      ],
      "stateMutability": "view",
      "type": "function"
    },
    {
      "inputs": [],
      "name": "baseURI",
      "outputs": [
        {
          "internalType": "string",
          "name": "",
          "type": "string"
        }
      ],
      "stateMutability": "view",
      "type": "function"
    },
    {
      "inputs": [
        {
          "internalType": "uint256",
          "name": "userProvidedSeed",
          "type": "uint256"
        },
        {
          "internalType": "string",
          "name": "name",
          "type": "string"
        },
        {
          "internalType": "string",
          "name": "referenceNumber",
          "type": "string"
        },
        {
          "internalType": "enum Luxurify.PriceType",
          "name": "priceType",
          "type": "uint8"
        },
        {
          "internalType": "enum Luxurify.Currency",
          "name": "priceUnit",
          "type": "uint8"
        },
        {
          "internalType": "uint256",
          "name": "priceFixed",
          "type": "uint256"
        }
      ],
      "name": "claimNewWatch",
      "outputs": [
        {
          "internalType": "bytes32",
          "name": "",
          "type": "bytes32"
        }
      ],
      "stateMutability": "nonpayable",
      "type": "function"
    },
    {
      "inputs": [
        {
          "internalType": "uint256",
          "name": "tokenId",
          "type": "uint256"
        }
      ],
      "name": "getApproved",
      "outputs": [
        {
          "internalType": "address",
          "name": "",
          "type": "address"
        }
      ],
      "stateMutability": "view",
      "type": "function"
    },
    {
      "inputs": [],
      "name": "getEthUsdPrice",
      "outputs": [
        {
          "internalType": "int256",
          "name": "",
          "type": "int256"
        }
      ],
      "stateMutability": "view",
      "type": "function"
    },
    {
      "inputs": [
        {
          "internalType": "uint256",
          "name": "tokenId",
          "type": "uint256"
        }
      ],
      "name": "getTokenURI",
      "outputs": [
        {
          "internalType": "string",
          "name": "",
          "type": "string"
        }
      ],
      "stateMutability": "view",
      "type": "function"
    },
    {
      "inputs": [
        {
          "internalType": "uint256",
          "name": "tokenId",
          "type": "uint256"
        }
      ],
      "name": "getWatchInfo",
      "outputs": [
        {
          "internalType": "uint256",
          "name": "",
          "type": "uint256"
        },
        {
          "internalType": "string",
          "name": "",
          "type": "string"
        },
        {
          "internalType": "string",
          "name": "",
          "type": "string"
        },
        {
          "internalType": "enum Luxurify.PriceType",
          "name": "",
          "type": "uint8"
        },
        {
          "internalType": "enum Luxurify.Currency",
          "name": "",
          "type": "uint8"
        },
        {
          "internalType": "uint256",
          "name": "",
          "type": "uint256"
        },
        {
          "internalType": "uint256",
          "name": "",
          "type": "uint256"
        }
      ],
      "stateMutability": "view",
      "type": "function"
    },
    {
      "inputs": [
        {
          "internalType": "address",
          "name": "_owner",
          "type": "address"
        },
        {
          "internalType": "address",
          "name": "_operator",
          "type": "address"
        }
      ],
      "name": "isApprovedForAll",
      "outputs": [
        {
          "internalType": "bool",
          "name": "",
          "type": "bool"
        }
      ],
      "stateMutability": "view",
      "type": "function"
    },
    {
      "inputs": [
        {
          "internalType": "address",
          "name": "_to",
          "type": "address"
        }
      ],
      "name": "mintTo",
      "outputs": [],
      "stateMutability": "nonpayable",
      "type": "function"
    },
    {
      "inputs": [],
      "name": "name",
      "outputs": [
        {
          "internalType": "string",
          "name": "",
          "type": "string"
        }
      ],
      "stateMutability": "view",
      "type": "function"
    },
    {
      "inputs": [],
      "name": "owner",
      "outputs": [
        {
          "internalType": "address",
          "name": "",
          "type": "address"
        }
      ],
      "stateMutability": "view",
      "type": "function"
    },
    {
      "inputs": [
        {
          "internalType": "uint256",
          "name": "_tokenId",
          "type": "uint256"
        }
      ],
      "name": "ownerOf",
      "outputs": [
        {
          "internalType": "address",
          "name": "_owner",
          "type": "address"
        }
      ],
      "stateMutability": "view",
      "type": "function"
    },
    {
      "inputs": [],
      "name": "randomResult",
      "outputs": [
        {
          "internalType": "uint256",
          "name": "",
          "type": "uint256"
        }
      ],
      "stateMutability": "view",
      "type": "function"
    },
    {
      "inputs": [
        {
          "internalType": "bytes32",
          "name": "requestId",
          "type": "bytes32"
        },
        {
          "internalType": "uint256",
          "name": "randomness",
          "type": "uint256"
        }
      ],
      "name": "rawFulfillRandomness",
      "outputs": [],
      "stateMutability": "nonpayable",
      "type": "function"
    },
    {
      "inputs": [],
      "name": "renounceOwnership",
      "outputs": [],
      "stateMutability": "nonpayable",
      "type": "function"
    },
    {
      "inputs": [
        {
          "internalType": "address",
          "name": "from",
          "type": "address"
        },
        {
          "internalType": "address",
          "name": "to",
          "type": "address"
        },
        {
          "internalType": "uint256",
          "name": "tokenId",
          "type": "uint256"
        }
      ],
      "name": "safeTransferFrom",
      "outputs": [],
      "stateMutability": "nonpayable",
      "type": "function"
    },
    {
      "inputs": [
        {
          "internalType": "address",
          "name": "from",
          "type": "address"
        },
        {
          "internalType": "address",
          "name": "to",
          "type": "address"
        },
        {
          "internalType": "uint256",
          "name": "tokenId",
          "type": "uint256"
        },
        {
          "internalType": "bytes",
          "name": "_data",
          "type": "bytes"
        }
      ],
      "name": "safeTransferFrom",
      "outputs": [],
      "stateMutability": "nonpayable",
      "type": "function"
    },
    {
      "inputs": [
        {
          "internalType": "address",
          "name": "operator",
          "type": "address"
        },
        {
          "internalType": "bool",
          "name": "approved",
          "type": "bool"
        }
      ],
      "name": "setApprovalForAll",
      "outputs": [],
      "stateMutability": "nonpayable",
      "type": "function"
    },
    {
      "inputs": [
        {
          "internalType": "uint256",
          "name": "tokenId",
          "type": "uint256"
        },
        {
          "internalType": "string",
          "name": "_tokenURI",
          "type": "string"
        }
      ],
      "name": "setTokenURI",
      "outputs": [],
      "stateMutability": "nonpayable",
      "type": "function"
    },
    {
      "inputs": [
        {
          "internalType": "bytes4",
          "name": "interfaceId",
          "type": "bytes4"
        }
      ],
      "name": "supportsInterface",
      "outputs": [
        {
          "internalType": "bool",
          "name": "",
          "type": "bool"
        }
      ],
      "stateMutability": "view",
      "type": "function"
    },
    {
      "inputs": [],
      "name": "symbol",
      "outputs": [
        {
          "internalType": "string",
          "name": "",
          "type": "string"
        }
      ],
      "stateMutability": "view",
      "type": "function"
    },
    {
      "inputs": [
        {
          "internalType": "uint256",
          "name": "index",
          "type": "uint256"
        }
      ],
      "name": "tokenByIndex",
      "outputs": [
        {
          "internalType": "uint256",
          "name": "",
          "type": "uint256"
        }
      ],
      "stateMutability": "view",
      "type": "function"
    },
    {
      "inputs": [
        {
          "internalType": "address",
          "name": "owner",
          "type": "address"
        },
        {
          "internalType": "uint256",
          "name": "index",
          "type": "uint256"
        }
      ],
      "name": "tokenOfOwnerByIndex",
      "outputs": [
        {
          "internalType": "uint256",
          "name": "",
          "type": "uint256"
        }
      ],
      "stateMutability": "view",
      "type": "function"
    },
    {
      "inputs": [
        {
          "internalType": "uint256",
          "name": "tokenId",
          "type": "uint256"
        }
      ],
      "name": "tokenURI",
      "outputs": [
        {
          "internalType": "string",
          "name": "",
          "type": "string"
        }
      ],
      "stateMutability": "view",
      "type": "function"
    },
    {
      "inputs": [],
      "name": "totalSupply",
      "outputs": [
        {
          "internalType": "uint256",
          "name": "",
          "type": "uint256"
        }
      ],
      "stateMutability": "view",
      "type": "function"
    },
    {
      "inputs": [
        {
          "internalType": "address",
          "name": "_from",
          "type": "address"
        },
        {
          "internalType": "address",
          "name": "_to",
          "type": "address"
        },
        {
          "internalType": "uint256",
          "name": "_tokenId",
          "type": "uint256"
        }
      ],
      "name": "transferFrom",
      "outputs": [],
      "stateMutability": "nonpayable",
      "type": "function"
    },
    {
      "inputs": [
        {
          "internalType": "address",
          "name": "newOwner",
          "type": "address"
        }
      ],
      "name": "transferOwnership",
      "outputs": [],
      "stateMutability": "nonpayable",
      "type": "function"
    },
    {
      "inputs": [
        {
          "internalType": "uint256",
          "name": "",
          "type": "uint256"
        }
      ],
      "name": "watches",
      "outputs": [
        {
          "internalType": "uint256",
          "name": "randomId",
          "type": "uint256"
        },
        {
          "internalType": "string",
          "name": "name",
          "type": "string"
        },
        {
          "internalType": "string",
          "name": "referenceNumber",
          "type": "string"
        },
        {
          "internalType": "enum Luxurify.PriceType",
          "name": "priceType",
          "type": "uint8"
        },
        {
          "internalType": "enum Luxurify.Currency",
          "name": "priceUnit",
          "type": "uint8"
        },
        {
          "internalType": "uint256",
          "name": "priceFixed",
          "type": "uint256"
        },
        {
          "internalType": "uint256",
          "name": "priceToBeSold",
          "type": "uint256"
        }
      ],
      "stateMutability": "view",
      "type": "function"
    }
  ],
  "bytecode": "0x60c06040526000600c553480156200001657600080fd5b50604051620052ad380380620052ad833981810160405260a08110156200003c57600080fd5b81019080805190602001909291908051906020019092919080519060200190929190805190602001909291908051906020019092919050505083826040518060400160405280600881526020017f4c757875726966790000000000000000000000000000000000000000000000008152506040518060400160405280600381526020017f4c58590000000000000000000000000000000000000000000000000000000000815250888282620000fe6301ffc9a760e01b620003c360201b60201c565b816006908051906020019062000116929190620004d4565b5080600790805190602001906200012f929190620004d4565b50620001486380ac58cd60e01b620003c360201b60201c565b62000160635b5e139f60e01b620003c360201b60201c565b6200017863780e9d6360e01b620003c360201b60201c565b505060006200018c620004cc60201b60201c565b905080600a60006101000a81548173ffffffffffffffffffffffffffffffffffffffff021916908373ffffffffffffffffffffffffffffffffffffffff1602179055508073ffffffffffffffffffffffffffffffffffffffff16600073ffffffffffffffffffffffffffffffffffffffff167f8be0079c531659141344cd1fd0a4f28419497f9722a3daafe3b4186f6b6457e060405160405180910390a35080600b60006101000a81548173ffffffffffffffffffffffffffffffffffffffff021916908373ffffffffffffffffffffffffffffffffffffffff1602179055505050508173ffffffffffffffffffffffffffffffffffffffff1660a08173ffffffffffffffffffffffffffffffffffffffff1660601b815250508073ffffffffffffffffffffffffffffffffffffffff1660808173ffffffffffffffffffffffffffffffffffffffff1660601b81525050505083601160006101000a81548173ffffffffffffffffffffffffffffffffffffffff021916908373ffffffffffffffffffffffffffffffffffffffff16021790555081601260006101000a81548173ffffffffffffffffffffffffffffffffffffffff021916908373ffffffffffffffffffffffffffffffffffffffff16021790555080600e8190555067016345785d8a0000600f8190555082601c60006101000a81548173ffffffffffffffffffffffffffffffffffffffff021916908373ffffffffffffffffffffffffffffffffffffffff160217905550505050505062000583565b63ffffffff60e01b817bffffffffffffffffffffffffffffffffffffffffffffffffffffffff1916141562000460576040517f08c379a000000000000000000000000000000000000000000000000000000000815260040180806020018281038252601c8152602001807f4552433136353a20696e76616c696420696e746572666163652069640000000081525060200191505060405180910390fd5b6001600080837bffffffffffffffffffffffffffffffffffffffffffffffffffffffff19167bffffffffffffffffffffffffffffffffffffffffffffffffffffffff1916815260200190815260200160002060006101000a81548160ff02191690831515021790555050565b600033905090565b828054600181600116156101000203166002900490600052602060002090601f016020900481019282601f106200051757805160ff191683800117855562000548565b8280016001018555821562000548579182015b82811115620005475782518255916020019190600101906200052a565b5b5090506200055791906200055b565b5090565b6200058091905b808211156200057c57600081600090555060010162000562565b5090565b90565b60805160601c60a05160601c614cf6620005b760003980611c5b52806136fb525080611dd152806136bf5250614cf66000f3fe608060405234801561001057600080fd5b50600436106101e55760003560e01c80636352211e1161010f57806395deba4c116100a2578063c87b56dd11610071578063c87b56dd14610e3f578063d035537314610ee6578063e985e9c514611038578063f2fde38b146110b4576101e5565b806395deba4c14610b38578063a0a8045e14610ccc578063a22cb46514610cea578063b88d4fde14610d3a576101e5565b8063755edd17116100de578063755edd17146109ef5780638da5cb5b14610a3357806394985ddd14610a7d57806395d89b4114610ab5576101e5565b80636352211e1461089c5780636c0360eb1461090a57806370a082311461098d578063715018a6146109e5576101e5565b80632f745c591161018757806342842e0e1161015657806342842e0e146106505780634f6ccce7146106be5780634f8e2fdf146107005780635aba75971461074a576101e5565b80632f745c59146104df57806333b60863146105415780633bb3a24d1461058b57806342619f6614610632576101e5565b8063095ea7b3116101c3578063095ea7b314610340578063162094c41461038e57806318160ddd1461045357806323b872dd14610471576101e5565b806301ffc9a7146101ea57806306fdde031461024f578063081812fc146102d2575b600080fd5b6102356004803603602081101561020057600080fd5b8101908080357bffffffffffffffffffffffffffffffffffffffffffffffffffffffff191690602001909291905050506110f8565b604051808215151515815260200191505060405180910390f35b61025761115f565b6040518080602001828103825283818151815260200191508051906020019080838360005b8381101561029757808201518184015260208101905061027c565b50505050905090810190601f1680156102c45780820380516001836020036101000a031916815260200191505b509250505060405180910390f35b6102fe600480360360208110156102e857600080fd5b8101908080359060200190929190505050611201565b604051808273ffffffffffffffffffffffffffffffffffffffff1673ffffffffffffffffffffffffffffffffffffffff16815260200191505060405180910390f35b61038c6004803603604081101561035657600080fd5b81019080803573ffffffffffffffffffffffffffffffffffffffff1690602001909291908035906020019092919050505061129c565b005b610451600480360360408110156103a457600080fd5b8101908080359060200190929190803590602001906401000000008111156103cb57600080fd5b8201836020820111156103dd57600080fd5b803590602001918460018302840111640100000000831117156103ff57600080fd5b91908080601f016020809104026020016040519081016040528093929190818152602001838380828437600081840152601f19601f8201169050808301925050505050505091929192905050506113e0565b005b61045b611454565b6040518082815260200191505060405180910390f35b6104dd6004803603606081101561048757600080fd5b81019080803573ffffffffffffffffffffffffffffffffffffffff169060200190929190803573ffffffffffffffffffffffffffffffffffffffff16906020019092919080359060200190929190505050611465565b005b61052b600480360360408110156104f557600080fd5b81019080803573ffffffffffffffffffffffffffffffffffffffff16906020019092919080359060200190929190505050611474565b6040518082815260200191505060405180910390f35b6105496114cf565b604051808273ffffffffffffffffffffffffffffffffffffffff1673ffffffffffffffffffffffffffffffffffffffff16815260200191505060405180910390f35b6105b7600480360360208110156105a157600080fd5b81019080803590602001909291905050506114f5565b6040518080602001828103825283818151815260200191508051906020019080838360005b838110156105f75780820151818401526020810190506105dc565b50505050905090810190601f1680156106245780820380516001836020036101000a031916815260200191505b509250505060405180910390f35b61063a611507565b6040518082815260200191505060405180910390f35b6106bc6004803603606081101561066657600080fd5b81019080803573ffffffffffffffffffffffffffffffffffffffff169060200190929190803573ffffffffffffffffffffffffffffffffffffffff1690602001909291908035906020019092919050505061150d565b005b6106ea600480360360208110156106d457600080fd5b810190808035906020019092919050505061152d565b6040518082815260200191505060405180910390f35b610708611550565b604051808273ffffffffffffffffffffffffffffffffffffffff1673ffffffffffffffffffffffffffffffffffffffff16815260200191505060405180910390f35b6107766004803603602081101561076057600080fd5b8101908080359060200190929190505050611576565b60405180888152602001806020018060200187600181111561079457fe5b60ff1681526020018660018111156107a857fe5b60ff168152602001858152602001848152602001838103835289818151815260200191508051906020019080838360005b838110156107f45780820151818401526020810190506107d9565b50505050905090810190601f1680156108215780820380516001836020036101000a031916815260200191505b50838103825288818151815260200191508051906020019080838360005b8381101561085a57808201518184015260208101905061083f565b50505050905090810190601f1680156108875780820380516001836020036101000a031916815260200191505b50995050505050505050505060405180910390f35b6108c8600480360360208110156108b257600080fd5b8101908080359060200190929190505050611866565b604051808273ffffffffffffffffffffffffffffffffffffffff1673ffffffffffffffffffffffffffffffffffffffff16815260200191505060405180910390f35b610912611877565b6040518080602001828103825283818151815260200191508051906020019080838360005b83811015610952578082015181840152602081019050610937565b50505050905090810190601f16801561097f5780820380516001836020036101000a031916815260200191505b509250505060405180910390f35b6109cf600480360360208110156109a357600080fd5b81019080803573ffffffffffffffffffffffffffffffffffffffff169060200190929190505050611919565b6040518082815260200191505060405180910390f35b6109ed6119ee565b005b610a3160048036036020811015610a0557600080fd5b81019080803573ffffffffffffffffffffffffffffffffffffffff169060200190929190505050611b5e565b005b610a3b611c2f565b604051808273ffffffffffffffffffffffffffffffffffffffff1673ffffffffffffffffffffffffffffffffffffffff16815260200191505060405180910390f35b610ab360048036036040811015610a9357600080fd5b810190808035906020019092919080359060200190929190505050611c59565b005b610abd611d28565b6040518080602001828103825283818151815260200191508051906020019080838360005b83811015610afd578082015181840152602081019050610ae2565b50505050905090810190601f168015610b2a5780820380516001836020036101000a031916815260200191505b509250505060405180910390f35b610cb6600480360360c0811015610b4e57600080fd5b810190808035906020019092919080359060200190640100000000811115610b7557600080fd5b820183602082011115610b8757600080fd5b80359060200191846001830284011164010000000083111715610ba957600080fd5b91908080601f016020809104026020016040519081016040528093929190818152602001838380828437600081840152601f19601f82011690508083019250505050505050919291929080359060200190640100000000811115610c0c57600080fd5b820183602082011115610c1e57600080fd5b80359060200191846001830284011164010000000083111715610c4057600080fd5b91908080601f016020809104026020016040519081016040528093929190818152602001838380828437600081840152601f19601f820116905080830192505050505050509192919290803560ff169060200190929190803560ff16906020019092919080359060200190929190505050611dca565b6040518082815260200191505060405180910390f35b610cd4612041565b6040518082815260200191505060405180910390f35b610d3860048036036040811015610d0057600080fd5b81019080803573ffffffffffffffffffffffffffffffffffffffff16906020019092919080351515906020019092919050505061212a565b005b610e3d60048036036080811015610d5057600080fd5b81019080803573ffffffffffffffffffffffffffffffffffffffff169060200190929190803573ffffffffffffffffffffffffffffffffffffffff1690602001909291908035906020019092919080359060200190640100000000811115610db757600080fd5b820183602082011115610dc957600080fd5b80359060200191846001830284011164010000000083111715610deb57600080fd5b91908080601f016020809104026020016040519081016040528093929190818152602001838380828437600081840152601f19601f8201169050808301925050505050505091929192905050506122e2565b005b610e6b60048036036020811015610e5557600080fd5b810190808035906020019092919050505061235a565b6040518080602001828103825283818151815260200191508051906020019080838360005b83811015610eab578082015181840152602081019050610e90565b50505050905090810190601f168015610ed85780820380516001836020036101000a031916815260200191505b509250505060405180910390f35b610f1260048036036020811015610efc57600080fd5b810190808035906020019092919050505061262b565b604051808881526020018060200180602001876001811115610f3057fe5b60ff168152602001866001811115610f4457fe5b60ff168152602001858152602001848152602001838103835289818151815260200191508051906020019080838360005b83811015610f90578082015181840152602081019050610f75565b50505050905090810190601f168015610fbd5780820380516001836020036101000a031916815260200191505b50838103825288818151815260200191508051906020019080838360005b83811015610ff6578082015181840152602081019050610fdb565b50505050905090810190601f1680156110235780820380516001836020036101000a031916815260200191505b50995050505050505050505060405180910390f35b61109a6004803603604081101561104e57600080fd5b81019080803573ffffffffffffffffffffffffffffffffffffffff169060200190929190803573ffffffffffffffffffffffffffffffffffffffff1690602001909291905050506127c4565b604051808215151515815260200191505060405180910390f35b6110f6600480360360208110156110ca57600080fd5b81019080803573ffffffffffffffffffffffffffffffffffffffff1690602001909291905050506129a7565b005b6000806000837bffffffffffffffffffffffffffffffffffffffffffffffffffffffff19167bffffffffffffffffffffffffffffffffffffffffffffffffffffffff1916815260200190815260200160002060009054906101000a900460ff169050919050565b606060068054600181600116156101000203166002900480601f0160208091040260200160405190810160405280929190818152602001828054600181600116156101000203166002900480156111f75780601f106111cc576101008083540402835291602001916111f7565b820191906000526020600020905b8154815290600101906020018083116111da57829003601f168201915b5050505050905090565b600061120c82612b9c565b611261576040517f08c379a000000000000000000000000000000000000000000000000000000000815260040180806020018281038252602c815260200180614bbf602c913960400191505060405180910390fd5b6004600083815260200190815260200160002060009054906101000a900473ffffffffffffffffffffffffffffffffffffffff169050919050565b60006112a782612bb9565b90508073ffffffffffffffffffffffffffffffffffffffff168373ffffffffffffffffffffffffffffffffffffffff16141561132e576040517f08c379a0000000000000000000000000000000000000000000000000000000008152600401808060200182810382526021815260200180614c6f6021913960400191505060405180910390fd5b8073ffffffffffffffffffffffffffffffffffffffff1661134d612bf0565b73ffffffffffffffffffffffffffffffffffffffff16148061137c575061137b81611376612bf0565b612bf8565b5b6113d1576040517f08c379a0000000000000000000000000000000000000000000000000000000008152600401808060200182810382526038815260200180614b126038913960400191505060405180910390fd5b6113db8383612c8c565b505050565b6113f16113eb612bf0565b83612d45565b611446576040517f08c379a0000000000000000000000000000000000000000000000000000000008152600401808060200182810382526031815260200180614c906031913960400191505060405180910390fd5b6114508282612e39565b5050565b60006114606002612ec3565b905090565b61146f8282612ed8565b505050565b60006114c782600160008673ffffffffffffffffffffffffffffffffffffffff1673ffffffffffffffffffffffffffffffffffffffff1681526020019081526020016000206130cc90919063ffffffff16565b905092915050565b601160009054906101000a900473ffffffffffffffffffffffffffffffffffffffff1681565b60606115008261235a565b9050919050565b60105481565b611528838383604051806020016040528060008152506122e2565b505050565b6000806115448360026130e690919063ffffffff16565b50905080915050919050565b601260009054906101000a900473ffffffffffffffffffffffffffffffffffffffff1681565b60006060806000806000806000809050600060138a8154811061159557fe5b906000526020600020906006020160030160009054906101000a900460ff169050600060138b815481106115c557fe5b906000526020600020906006020160030160019054906101000a900460ff169050600060138c815481106115f557fe5b906000526020600020906006020160040154905060018081111561161557fe5b83600181111561162157fe5b1415611696576000600181111561163457fe5b82600181111561164057fe5b141561164e57809350611691565b60018081111561165a57fe5b82600181111561166657fe5b1415611690576000611676612041565b905080670de0b6b3a764000083028161168b57fe5b049450505b5b6116b2565b600060018111156116a357fe5b8360018111156116af57fe5b50505b60138c815481106116bf57fe5b90600052602060002090600602016000015460138d815481106116de57fe5b906000526020600020906006020160010160138e815481106116fc57fe5b906000526020600020906006020160020185858589858054600181600116156101000203166002900480601f0160208091040260200160405190810160405280929190818152602001828054600181600116156101000203166002900480156117a65780601f1061177b576101008083540402835291602001916117a6565b820191906000526020600020905b81548152906001019060200180831161178957829003601f168201915b50505050509550848054600181600116156101000203166002900480601f0160208091040260200160405190810160405280929190818152602001828054600181600116156101000203166002900480156118425780601f1061181757610100808354040283529160200191611842565b820191906000526020600020905b81548152906001019060200180831161182557829003601f168201915b505050505094509a509a509a509a509a509a509a5050505050919395979092949650565b6000611870611c2f565b9050919050565b606060098054600181600116156101000203166002900480601f01602080910402602001604051908101604052809291908181526020018280546001816001161561010002031660029004801561190f5780601f106118e45761010080835404028352916020019161190f565b820191906000526020600020905b8154815290600101906020018083116118f257829003601f168201915b5050505050905090565b60008073ffffffffffffffffffffffffffffffffffffffff168273ffffffffffffffffffffffffffffffffffffffff1614156119a0576040517f08c379a000000000000000000000000000000000000000000000000000000000815260040180806020018281038252602a815260200180614b4a602a913960400191505060405180910390fd5b6119e7600160008473ffffffffffffffffffffffffffffffffffffffff1673ffffffffffffffffffffffffffffffffffffffff168152602001908152602001600020613115565b9050919050565b6119f6612bf0565b73ffffffffffffffffffffffffffffffffffffffff16611a14611c2f565b73ffffffffffffffffffffffffffffffffffffffff1614611a9d576040517f08c379a00000000000000000000000000000000000000000000000000000000081526004018080602001828103825260208152602001807f4f776e61626c653a2063616c6c6572206973206e6f7420746865206f776e657281525060200191505060405180910390fd5b600073ffffffffffffffffffffffffffffffffffffffff16600a60009054906101000a900473ffffffffffffffffffffffffffffffffffffffff1673ffffffffffffffffffffffffffffffffffffffff167f8be0079c531659141344cd1fd0a4f28419497f9722a3daafe3b4186f6b6457e060405160405180910390a36000600a60006101000a81548173ffffffffffffffffffffffffffffffffffffffff021916908373ffffffffffffffffffffffffffffffffffffffff160217905550565b611b66612bf0565b73ffffffffffffffffffffffffffffffffffffffff16611b84611c2f565b73ffffffffffffffffffffffffffffffffffffffff1614611c0d576040517f08c379a00000000000000000000000000000000000000000000000000000000081526004018080602001828103825260208152602001807f4f776e61626c653a2063616c6c6572206973206e6f7420746865206f776e657281525060200191505060405180910390fd5b6000611c1761312a565b9050611c238282612ed8565b611c2b613147565b5050565b6000600a60009054906101000a900473ffffffffffffffffffffffffffffffffffffffff16905090565b7f000000000000000000000000000000000000000000000000000000000000000073ffffffffffffffffffffffffffffffffffffffff163373ffffffffffffffffffffffffffffffffffffffff1614611d1a576040517f08c379a000000000000000000000000000000000000000000000000000000000815260040180806020018281038252601f8152602001807f4f6e6c7920565246436f6f7264696e61746f722063616e2066756c66696c6c0081525060200191505060405180910390fd5b611d24828261315b565b5050565b606060078054600181600116156101000203166002900480601f016020809104026020016040519081016040528092919081815260200182805460018160011615610100020316600290048015611dc05780601f10611d9557610100808354040283529160200191611dc0565b820191906000526020600020905b815481529060010190602001808311611da357829003601f168201915b5050505050905090565b6000600f547f000000000000000000000000000000000000000000000000000000000000000073ffffffffffffffffffffffffffffffffffffffff166370a08231306040518263ffffffff1660e01b8152600401808273ffffffffffffffffffffffffffffffffffffffff1673ffffffffffffffffffffffffffffffffffffffff16815260200191505060206040518083038186803b158015611e6c57600080fd5b505afa158015611e80573d6000803e3d6000fd5b505050506040513d6020811015611e9657600080fd5b81019080805190602001909291905050501015611efe576040517f08c379a000000000000000000000000000000000000000000000000000000000815260040180806020018281038252602b815260200180614a95602b913960400191505060405180910390fd5b6000611f0f600e54600f548a6136bb565b905086601560008381526020019081526020016000209080519060200190611f38929190614951565b5085601660008381526020019081526020016000209080519060200190611f60929190614951565b50846017600083815260200190815260200160002060006101000a81548160ff02191690836001811115611f9057fe5b0217905550836018600083815260200190815260200160002060006101000a81548160ff02191690836001811115611fc457fe5b0217905550826019600083815260200190815260200160002081905550336014600083815260200190815260200160002060006101000a81548173ffffffffffffffffffffffffffffffffffffffff021916908373ffffffffffffffffffffffffffffffffffffffff160217905550809150509695505050505050565b600080600080600080601c60009054906101000a900473ffffffffffffffffffffffffffffffffffffffff1673ffffffffffffffffffffffffffffffffffffffff1663feaf968c6040518163ffffffff1660e01b815260040160a06040518083038186803b1580156120b257600080fd5b505afa1580156120c6573d6000803e3d6000fd5b505050506040513d60a08110156120dc57600080fd5b81019080805190602001909291908051906020019092919080519060200190929190805190602001909291908051906020019092919050505094509450945094509450839550505050505090565b612132612bf0565b73ffffffffffffffffffffffffffffffffffffffff168273ffffffffffffffffffffffffffffffffffffffff1614156121d3576040517f08c379a00000000000000000000000000000000000000000000000000000000081526004018080602001828103825260198152602001807f4552433732313a20617070726f766520746f2063616c6c65720000000000000081525060200191505060405180910390fd5b80600560006121e0612bf0565b73ffffffffffffffffffffffffffffffffffffffff1673ffffffffffffffffffffffffffffffffffffffff16815260200190815260200160002060008473ffffffffffffffffffffffffffffffffffffffff1673ffffffffffffffffffffffffffffffffffffffff16815260200190815260200160002060006101000a81548160ff0219169083151502179055508173ffffffffffffffffffffffffffffffffffffffff1661228d612bf0565b73ffffffffffffffffffffffffffffffffffffffff167f17307eab39ab6107e8899845ad3d59bd9653f200f220920489ca2b5937696c3183604051808215151515815260200191505060405180910390a35050565b6122f36122ed612bf0565b83612d45565b612348576040517f08c379a0000000000000000000000000000000000000000000000000000000008152600401808060200182810382526031815260200180614c906031913960400191505060405180910390fd5b612354848484846138c9565b50505050565b606061236582612b9c565b6123ba576040517f08c379a000000000000000000000000000000000000000000000000000000000815260040180806020018281038252602f815260200180614c40602f913960400191505060405180910390fd5b6060600860008481526020019081526020016000208054600181600116156101000203166002900480601f0160208091040260200160405190810160405280929190818152602001828054600181600116156101000203166002900480156124635780601f1061243857610100808354040283529160200191612463565b820191906000526020600020905b81548152906001019060200180831161244657829003601f168201915b505050505090506060612474611877565b905060008151141561248a578192505050612626565b60008251111561255b5780826040516020018083805190602001908083835b602083106124cc57805182526020820191506020810190506020830392506124a9565b6001836020036101000a03801982511681845116808217855250505050505090500182805190602001908083835b6020831061251d57805182526020820191506020810190506020830392506124fa565b6001836020036101000a0380198251168184511680821785525050505050509050019250505060405160208183030381529060405292505050612626565b806125658561393b565b6040516020018083805190602001908083835b6020831061259b5780518252602082019150602081019050602083039250612578565b6001836020036101000a03801982511681845116808217855250505050505090500182805190602001908083835b602083106125ec57805182526020820191506020810190506020830392506125c9565b6001836020036101000a03801982511681845116808217855250505050505090500192505050604051602081830303815290604052925050505b919050565b6013818154811061263857fe5b9060005260206000209060060201600091509050806000015490806001018054600181600116156101000203166002900480601f0160208091040260200160405190810160405280929190818152602001828054600181600116156101000203166002900480156126ea5780601f106126bf576101008083540402835291602001916126ea565b820191906000526020600020905b8154815290600101906020018083116126cd57829003601f168201915b505050505090806002018054600181600116156101000203166002900480601f0160208091040260200160405190810160405280929190818152602001828054600181600116156101000203166002900480156127885780601f1061275d57610100808354040283529160200191612788565b820191906000526020600020905b81548152906001019060200180831161276b57829003601f168201915b5050505050908060030160009054906101000a900460ff16908060030160019054906101000a900460ff16908060040154908060050154905087565b60008273ffffffffffffffffffffffffffffffffffffffff166127e5611c2f565b73ffffffffffffffffffffffffffffffffffffffff1614801561283357508173ffffffffffffffffffffffffffffffffffffffff168373ffffffffffffffffffffffffffffffffffffffff16145b1561284157600190506129a1565b6000600b60009054906101000a900473ffffffffffffffffffffffffffffffffffffffff1690508373ffffffffffffffffffffffffffffffffffffffff16612887611c2f565b73ffffffffffffffffffffffffffffffffffffffff1614801561298c57508273ffffffffffffffffffffffffffffffffffffffff168173ffffffffffffffffffffffffffffffffffffffff1663c4552791866040518263ffffffff1660e01b8152600401808273ffffffffffffffffffffffffffffffffffffffff1673ffffffffffffffffffffffffffffffffffffffff16815260200191505060206040518083038186803b15801561293957600080fd5b505afa15801561294d573d6000803e3d6000fd5b505050506040513d602081101561296357600080fd5b810190808051906020019092919050505073ffffffffffffffffffffffffffffffffffffffff16145b1561299b5760019150506129a1565b60009150505b92915050565b6129af612bf0565b73ffffffffffffffffffffffffffffffffffffffff166129cd611c2f565b73ffffffffffffffffffffffffffffffffffffffff1614612a56576040517f08c379a00000000000000000000000000000000000000000000000000000000081526004018080602001828103825260208152602001807f4f776e61626c653a2063616c6c6572206973206e6f7420746865206f776e657281525060200191505060405180910390fd5b600073ffffffffffffffffffffffffffffffffffffffff168173ffffffffffffffffffffffffffffffffffffffff161415612adc576040517f08c379a0000000000000000000000000000000000000000000000000000000008152600401808060200182810382526026815260200180614a4b6026913960400191505060405180910390fd5b8073ffffffffffffffffffffffffffffffffffffffff16600a60009054906101000a900473ffffffffffffffffffffffffffffffffffffffff1673ffffffffffffffffffffffffffffffffffffffff167f8be0079c531659141344cd1fd0a4f28419497f9722a3daafe3b4186f6b6457e060405160405180910390a380600a60006101000a81548173ffffffffffffffffffffffffffffffffffffffff021916908373ffffffffffffffffffffffffffffffffffffffff16021790555050565b6000612bb2826002613a8290919063ffffffff16565b9050919050565b6000612be982604051806060016040528060298152602001614b74602991396002613a9c9092919063ffffffff16565b9050919050565b600033905090565b6000600560008473ffffffffffffffffffffffffffffffffffffffff1673ffffffffffffffffffffffffffffffffffffffff16815260200190815260200160002060008373ffffffffffffffffffffffffffffffffffffffff1673ffffffffffffffffffffffffffffffffffffffff16815260200190815260200160002060009054906101000a900460ff16905092915050565b816004600083815260200190815260200160002060006101000a81548173ffffffffffffffffffffffffffffffffffffffff021916908373ffffffffffffffffffffffffffffffffffffffff160217905550808273ffffffffffffffffffffffffffffffffffffffff16612cff83612bb9565b73ffffffffffffffffffffffffffffffffffffffff167f8c5be1e5ebec7d5bd14f71427d1e84f3dd0314c0f7b2291e5b200ac8c7c3b92560405160405180910390a45050565b6000612d5082612b9c565b612da5576040517f08c379a000000000000000000000000000000000000000000000000000000000815260040180806020018281038252602c815260200180614ae6602c913960400191505060405180910390fd5b6000612db083612bb9565b90508073ffffffffffffffffffffffffffffffffffffffff168473ffffffffffffffffffffffffffffffffffffffff161480612e1f57508373ffffffffffffffffffffffffffffffffffffffff16612e0784611201565b73ffffffffffffffffffffffffffffffffffffffff16145b80612e305750612e2f8185612bf8565b5b91505092915050565b612e4282612b9c565b612e97576040517f08c379a000000000000000000000000000000000000000000000000000000000815260040180806020018281038252602c815260200180614beb602c913960400191505060405180910390fd5b80600860008481526020019081526020016000209080519060200190612ebe929190614951565b505050565b6000612ed182600001613abb565b9050919050565b600073ffffffffffffffffffffffffffffffffffffffff168273ffffffffffffffffffffffffffffffffffffffff161415612f7b576040517f08c379a00000000000000000000000000000000000000000000000000000000081526004018080602001828103825260208152602001807f4552433732313a206d696e7420746f20746865207a65726f206164647265737381525060200191505060405180910390fd5b612f8481612b9c565b15612ff7576040517f08c379a000000000000000000000000000000000000000000000000000000000815260040180806020018281038252601c8152602001807f4552433732313a20746f6b656e20616c7265616479206d696e7465640000000081525060200191505060405180910390fd5b61300360008383613acc565b61305481600160008573ffffffffffffffffffffffffffffffffffffffff1673ffffffffffffffffffffffffffffffffffffffff168152602001908152602001600020613ad190919063ffffffff16565b5061306b81836002613aeb9092919063ffffffff16565b50808273ffffffffffffffffffffffffffffffffffffffff16600073ffffffffffffffffffffffffffffffffffffffff167fddf252ad1be2c89b69c2b068fc378daa952ba7f163c4a11628f55a4df523b3ef60405160405180910390a45050565b60006130db8360000183613b20565b60001c905092915050565b6000806000806130f98660000186613ba3565b915091508160001c8160001c8090509350935050509250929050565b600061312382600001613c3c565b9050919050565b60006131426001600c54613c4d90919063ffffffff16565b905090565b600c60008154809291906001019190505550565b6000601380549050905060136040518060e00160405280848152602001601560008781526020019081526020016000208054600181600116156101000203166002900480601f01602080910402602001604051908101604052809291908181526020018280546001816001161561010002031660029004801561321f5780601f106131f45761010080835404028352916020019161321f565b820191906000526020600020905b81548152906001019060200180831161320257829003601f168201915b50505050508152602001601660008781526020019081526020016000208054600181600116156101000203166002900480601f0160208091040260200160405190810160405280929190818152602001828054600181600116156101000203166002900480156132d05780601f106132a5576101008083540402835291602001916132d0565b820191906000526020600020905b8154815290600101906020018083116132b357829003601f168201915b505050505081526020016017600087815260200190815260200160002060009054906101000a900460ff16600181111561330657fe5b81526020016018600087815260200190815260200160002060009054906101000a900460ff16600181111561333757fe5b815260200160196000878152602001908152602001600020548152602001600081525090806001815401808255809150506001900390600052602060002090600602016000909190919091506000820151816000015560208201518160010190805190602001906133a9929190614951565b5060408201518160020190805190602001906133c6929190614951565b5060608201518160030160006101000a81548160ff021916908360018111156133eb57fe5b021790555060808201518160030160016101000a81548160ff0219169083600181111561341457fe5b021790555060a0820151816004015560c08201518160050155505061346c6014600085815260200190815260200160002060009054906101000a900473ffffffffffffffffffffffffffffffffffffffff1682613cd5565b6014600084815260200190815260200160002060009054906101000a900473ffffffffffffffffffffffffffffffffffffffff1673ffffffffffffffffffffffffffffffffffffffff16817f930dde77a243f4530cc76a053455591a50cede66f76b05346a0809ecf54f8bfa846015600088815260200190815260200160002060166000898152602001908152602001600020601760008a815260200190815260200160002060009054906101000a900460ff16601860008b815260200190815260200160002060009054906101000a900460ff16601960008c815260200190815260200160002054600060405180888152602001806020018060200187600181111561357557fe5b60ff16815260200186600181111561358957fe5b60ff16815260200185815260200184815260200183810383528981815460018160011615610100020316600290048152602001915080546001816001161561010002031660029004801561361e5780601f106135f35761010080835404028352916020019161361e565b820191906000526020600020905b81548152906001019060200180831161360157829003601f168201915b50508381038252888181546001816001161561010002031660029004815260200191508054600181600116156101000203166002900480156136a15780601f10613676576101008083540402835291602001916136a1565b820191906000526020600020905b81548152906001019060200180831161368457829003601f168201915b5050995050505050505050505060405180910390a3505050565b60007f000000000000000000000000000000000000000000000000000000000000000073ffffffffffffffffffffffffffffffffffffffff16634000aea07f000000000000000000000000000000000000000000000000000000000000000085878660405160200180838152602001828152602001925050506040516020818303038152906040526040518463ffffffff1660e01b8152600401808473ffffffffffffffffffffffffffffffffffffffff1673ffffffffffffffffffffffffffffffffffffffff16815260200183815260200180602001828103825283818151815260200191508051906020019080838360005b838110156137ca5780820151818401526020810190506137af565b50505050905090810190601f1680156137f75780820380516001836020036101000a031916815260200191505b50945050505050602060405180830381600087803b15801561381857600080fd5b505af115801561382c573d6000803e3d6000fd5b505050506040513d602081101561384257600080fd5b8101908080519060200190929190505050506000613875858430600d60008a815260200190815260200160002054613cf3565b905061389e6001600d600088815260200190815260200160002054613d6d90919063ffffffff16565b600d6000878152602001908152602001600020819055506138bf8582613df5565b9150509392505050565b6138d4848484613e2e565b6138e084848484614071565b613935576040517f08c379a0000000000000000000000000000000000000000000000000000000008152600401808060200182810382526032815260200180614a196032913960400191505060405180910390fd5b50505050565b60606000821415613983576040518060400160405280600181526020017f30000000000000000000000000000000000000000000000000000000000000008152509050613a7d565b600082905060005b600082146139ad578080600101915050600a82816139a557fe5b04915061398b565b60608167ffffffffffffffff811180156139c657600080fd5b506040519080825280601f01601f1916602001820160405280156139f95781602001600182028036833780820191505090505b50905060006001830390508593505b60008414613a7557600a8481613a1a57fe5b0660300160f81b82828060019003935081518110613a3457fe5b60200101907effffffffffffffffffffffffffffffffffffffffffffffffffffffffffffff1916908160001a905350600a8481613a6d57fe5b049350613a08565b819450505050505b919050565b6000613a94836000018360001b6142b6565b905092915050565b6000613aaf846000018460001b846142d9565b60001c90509392505050565b600081600001805490509050919050565b505050565b6000613ae3836000018360001b6143cf565b905092915050565b6000613b17846000018460001b8473ffffffffffffffffffffffffffffffffffffffff1660001b61443f565b90509392505050565b600081836000018054905011613b81576040517f08c379a00000000000000000000000000000000000000000000000000000000081526004018080602001828103825260228152602001806149f76022913960400191505060405180910390fd5b826000018281548110613b9057fe5b9060005260206000200154905092915050565b60008082846000018054905011613c05576040517f08c379a0000000000000000000000000000000000000000000000000000000008152600401808060200182810382526022815260200180614b9d6022913960400191505060405180910390fd5b6000846000018481548110613c1657fe5b906000526020600020906002020190508060000154816001015492509250509250929050565b600081600001805490509050919050565b600080828401905083811015613ccb576040517f08c379a000000000000000000000000000000000000000000000000000000000815260040180806020018281038252601b8152602001807f536166654d6174683a206164646974696f6e206f766572666c6f77000000000081525060200191505060405180910390fd5b8091505092915050565b613cef82826040518060200160405280600081525061451b565b5050565b600084848484604051602001808581526020018481526020018373ffffffffffffffffffffffffffffffffffffffff1673ffffffffffffffffffffffffffffffffffffffff1681526020018281526020019450505050506040516020818303038152906040528051906020012060001c9050949350505050565b600080828401905083811015613deb576040517f08c379a000000000000000000000000000000000000000000000000000000000815260040180806020018281038252601b8152602001807f536166654d6174683a206164646974696f6e206f766572666c6f77000000000081525060200191505060405180910390fd5b8091505092915050565b60008282604051602001808381526020018281526020019250505060405160208183030381529060405280519060200120905092915050565b8273ffffffffffffffffffffffffffffffffffffffff16613e4e82612bb9565b73ffffffffffffffffffffffffffffffffffffffff1614613eba576040517f08c379a0000000000000000000000000000000000000000000000000000000008152600401808060200182810382526029815260200180614c176029913960400191505060405180910390fd5b600073ffffffffffffffffffffffffffffffffffffffff168273ffffffffffffffffffffffffffffffffffffffff161415613f40576040517f08c379a0000000000000000000000000000000000000000000000000000000008152600401808060200182810382526024815260200180614a716024913960400191505060405180910390fd5b613f4b838383613acc565b613f56600082612c8c565b613fa781600160008673ffffffffffffffffffffffffffffffffffffffff1673ffffffffffffffffffffffffffffffffffffffff16815260200190815260200160002061458c90919063ffffffff16565b50613ff981600160008573ffffffffffffffffffffffffffffffffffffffff1673ffffffffffffffffffffffffffffffffffffffff168152602001908152602001600020613ad190919063ffffffff16565b5061401081836002613aeb9092919063ffffffff16565b50808273ffffffffffffffffffffffffffffffffffffffff168473ffffffffffffffffffffffffffffffffffffffff167fddf252ad1be2c89b69c2b068fc378daa952ba7f163c4a11628f55a4df523b3ef60405160405180910390a4505050565b60006140928473ffffffffffffffffffffffffffffffffffffffff166145a6565b61409f57600190506142ae565b606061423563150b7a0260e01b6140b4612bf0565b888787604051602401808573ffffffffffffffffffffffffffffffffffffffff1673ffffffffffffffffffffffffffffffffffffffff1681526020018473ffffffffffffffffffffffffffffffffffffffff1673ffffffffffffffffffffffffffffffffffffffff16815260200183815260200180602001828103825283818151815260200191508051906020019080838360005b83811015614164578082015181840152602081019050614149565b50505050905090810190601f1680156141915780820380516001836020036101000a031916815260200191505b5095505050505050604051602081830303815290604052907bffffffffffffffffffffffffffffffffffffffffffffffffffffffff19166020820180517bffffffffffffffffffffffffffffffffffffffffffffffffffffffff8381831617835250505050604051806060016040528060328152602001614a19603291398773ffffffffffffffffffffffffffffffffffffffff166145b99092919063ffffffff16565b9050600081806020019051602081101561424e57600080fd5b8101908080519060200190929190505050905063150b7a0260e01b7bffffffffffffffffffffffffffffffffffffffffffffffffffffffff1916817bffffffffffffffffffffffffffffffffffffffffffffffffffffffff191614925050505b949350505050565b600080836001016000848152602001908152602001600020541415905092915050565b600080846001016000858152602001908152602001600020549050600081141583906143a0576040517f08c379a00000000000000000000000000000000000000000000000000000000081526004018080602001828103825283818151815260200191508051906020019080838360005b8381101561436557808201518184015260208101905061434a565b50505050905090810190601f1680156143925780820380516001836020036101000a031916815260200191505b509250505060405180910390fd5b508460000160018203815481106143b357fe5b9060005260206000209060020201600101549150509392505050565b60006143db83836145d1565b614434578260000182908060018154018082558091505060019003906000526020600020016000909190919091505582600001805490508360010160008481526020019081526020016000208190555060019050614439565b600090505b92915050565b60008084600101600085815260200190815260200160002054905060008114156144e657846000016040518060400160405280868152602001858152509080600181540180825580915050600190039060005260206000209060020201600090919091909150600082015181600001556020820151816001015550508460000180549050856001016000868152602001908152602001600020819055506001915050614514565b828560000160018303815481106144f957fe5b90600052602060002090600202016001018190555060009150505b9392505050565b6145258383612ed8565b6145326000848484614071565b614587576040517f08c379a0000000000000000000000000000000000000000000000000000000008152600401808060200182810382526032815260200180614a196032913960400191505060405180910390fd5b505050565b600061459e836000018360001b6145f4565b905092915050565b600080823b905060008111915050919050565b60606145c884846000856146dc565b90509392505050565b600080836001016000848152602001908152602001600020541415905092915050565b600080836001016000848152602001908152602001600020549050600081146146d0576000600182039050600060018660000180549050039050600086600001828154811061463f57fe5b906000526020600020015490508087600001848154811061465c57fe5b906000526020600020018190555060018301876001016000838152602001908152602001600020819055508660000180548061469457fe5b600190038181906000526020600020016000905590558660010160008781526020019081526020016000206000905560019450505050506146d6565b60009150505b92915050565b606082471015614737576040517f08c379a0000000000000000000000000000000000000000000000000000000008152600401808060200182810382526026815260200180614ac06026913960400191505060405180910390fd5b614740856145a6565b6147b2576040517f08c379a000000000000000000000000000000000000000000000000000000000815260040180806020018281038252601d8152602001807f416464726573733a2063616c6c20746f206e6f6e2d636f6e747261637400000081525060200191505060405180910390fd5b600060608673ffffffffffffffffffffffffffffffffffffffff1685876040518082805190602001908083835b6020831061480257805182526020820191506020810190506020830392506147df565b6001836020036101000a03801982511681845116808217855250505050505090500191505060006040518083038185875af1925050503d8060008114614864576040519150601f19603f3d011682016040523d82523d6000602084013e614869565b606091505b5091509150614879828286614885565b92505050949350505050565b606083156148955782905061494a565b6000835111156148a85782518084602001fd5b816040517f08c379a00000000000000000000000000000000000000000000000000000000081526004018080602001828103825283818151815260200191508051906020019080838360005b8381101561490f5780820151818401526020810190506148f4565b50505050905090810190601f16801561493c5780820380516001836020036101000a031916815260200191505b509250505060405180910390fd5b9392505050565b828054600181600116156101000203166002900490600052602060002090601f016020900481019282601f1061499257805160ff19168380011785556149c0565b828001600101855582156149c0579182015b828111156149bf5782518255916020019190600101906149a4565b5b5090506149cd91906149d1565b5090565b6149f391905b808211156149ef5760008160009055506001016149d7565b5090565b9056fe456e756d657261626c655365743a20696e646578206f7574206f6620626f756e64734552433732313a207472616e7366657220746f206e6f6e20455243373231526563656976657220696d706c656d656e7465724f776e61626c653a206e6577206f776e657220697320746865207a65726f20616464726573734552433732313a207472616e7366657220746f20746865207a65726f20616464726573734e6f7420656e6f756768204c494e4b202d2066696c6c20636f6e7472616374207769746820666175636574416464726573733a20696e73756666696369656e742062616c616e636520666f722063616c6c4552433732313a206f70657261746f7220717565727920666f72206e6f6e6578697374656e7420746f6b656e4552433732313a20617070726f76652063616c6c6572206973206e6f74206f776e6572206e6f7220617070726f76656420666f7220616c6c4552433732313a2062616c616e636520717565727920666f7220746865207a65726f20616464726573734552433732313a206f776e657220717565727920666f72206e6f6e6578697374656e7420746f6b656e456e756d657261626c654d61703a20696e646578206f7574206f6620626f756e64734552433732313a20617070726f76656420717565727920666f72206e6f6e6578697374656e7420746f6b656e4552433732314d657461646174613a2055524920736574206f66206e6f6e6578697374656e7420746f6b656e4552433732313a207472616e73666572206f6620746f6b656e2074686174206973206e6f74206f776e4552433732314d657461646174613a2055524920717565727920666f72206e6f6e6578697374656e7420746f6b656e4552433732313a20617070726f76616c20746f2063757272656e74206f776e65724552433732313a207472616e736665722063616c6c6572206973206e6f74206f776e6572206e6f7220617070726f766564a264697066735822122035442979b1047cf9ae6e939727d3258e383daf041a0bbbb8528e3be453a8262164736f6c63430006060033",
  "linkReferences": {},
  "deployedLinkReferences": {}
}